{"abi":[{"type":"constructor","inputs":[{"name":"weth","type":"address","internalType":"address"},{"name":"factories","type":"address[]","internalType":"address[]"},{"name":"fees","type":"uint16[]","internalType":"uint16[]"}],"stateMutability":"nonpayable"},{"type":"receive","stateMutability":"payable"},{"type":"function","name":"ADDRESSES_PROVIDER","inputs":[],"outputs":[{"name":"","type":"address","internalType":"contract IPoolAddressesProvider"}],"stateMutability":"view"},{"type":"function","name":"POOL","inputs":[],"outputs":[{"name":"","type":"address","internalType":"contract IPool"}],"stateMutability":"view"},{"type":"function","name":"executeArbitrage","inputs":[{"name":"arb","type":"tuple","internalType":"struct FlashSwap.SwapParams","components":[{"name":"pools","type":"address[]","internalType":"address[]"},{"name":"poolVersions","type":"uint8[]","internalType":"uint8[]"},{"name":"amountIn","type":"uint256","internalType":"uint256"}]}],"outputs":[],"stateMutability":"nonpayable"},{"type":"function","name":"executeOperation","inputs":[{"name":"asset","type":"address","internalType":"address"},{"name":"amount","type":"uint256","internalType":"uint256"},{"name":"premium","type":"uint256","internalType":"uint256"},{"name":"","type":"address","internalType":"address"},{"name":"params","type":"bytes","internalType":"bytes"}],"outputs":[{"name":"","type":"bool","internalType":"bool"}],"stateMutability":"nonpayable"},{"type":"function","name":"owner","inputs":[],"outputs":[{"name":"","type":"address","internalType":"address"}],"stateMutability":"view"},{"type":"function","name":"uniswapV3SwapCallback","inputs":[{"name":"amount0Delta","type":"int256","internalType":"int256"},{"name":"amount1Delta","type":"int256","internalType":"int256"},{"name":"data","type":"bytes","internalType":"bytes"}],"outputs":[],"stateMutability":"nonpayable"}],"bytecode":{"object":"0x60e080604052346102225761148c803803809161001c828561026c565b833981019060608183031261022257610034816102a3565b60208201516001600160401b0381116102225782019183601f8401121561022257825192610061846102b7565b9361006f604051958661026c565b80855260208086019160051b8301019186831161022257602001905b828210610254575050506040810151906001600160401b03821161022257019280601f85011215610222578351906100c2826102b7565b946100d0604051968761026c565b82865260208087019360051b82010191821161022257602001915b8183106102395750505073e20fcbdbffc4dd138ce8b2e6fbb6cb49777ad64d60805260405163026b1d5f60e01b815260208160048173e20fcbdbffc4dd138ce8b2e6fbb6cb49777ad64d5afa90811561022e575f916101f0575b506001600160a01b031660a05260c0525f5b815181101561019f578061ffff610170600193866102ce565b5116828060a01b0361018283866102ce565b51165f525f60205260405f209061ffff1982541617905501610157565b600180546001600160a01b0319163317905560405161119590816102f7823960805181610fb4015260a0518181816101b7015281816102380152610e66015260c0518181816103d90152610ed10152f35b90506020813d602011610226575b8161020b6020938361026c565b810103126102225761021c906102a3565b5f610145565b5f80fd5b3d91506101fe565b6040513d5f823e3d90fd5b825161ffff81168103610222578152602092830192016100eb565b60208091610261846102a3565b81520191019061008b565b601f909101601f19168101906001600160401b0382119082101761028f57604052565b634e487b7160e01b5f52604160045260245ffd5b51906001600160a01b038216820361022257565b6001600160401b03811161028f5760051b60200190565b80518210156102e25760209160051b010190565b634e487b7160e01b5f52603260045260245ffdfe608080604052600436101561001c575b50361561001a575f80fd5b005b5f905f3560e01c9081630542975c14610f97575080631105708914610d9c5780631b11d0ff146101db5780637535d246146101975780638da5cb5b146101705763fa461e330361000f573461016d57606036600319011261016d5760443560043567ffffffffffffffff821161016b5761009c6040923690600401611002565b908093918101031261016b57816020916100c3836100bc61010d96610fee565b9301610fee565b908580821315610157576001600160a01b038092945b6040519788968795869363a9059cbb60e01b85521660048401602090939291936001600160a01b0360408201951681520152565b0393165af1801561014c57610120575080f35b6101419060203d602011610145575b6101398183611073565b81019061112c565b5080f35b503d61012f565b6040513d84823e3d90fd5b6001600160a01b03809250602435946100d9565b825b80fd5b503461016d578060031936011261016d5760206001600160a01b0360015416604051908152f35b503461016d578060031936011261016d5760206040516001600160a01b037f0000000000000000000000000000000000000000000000000000000000000000168152f35b503461016d5760a036600319011261016d57600435906001600160a01b03821680920361016d5761020a610fd8565b5060843567ffffffffffffffff8111610d3a5761022b903690600401611002565b9290916001600160a01b037f00000000000000000000000000000000000000000000000000000000000000001693843303610d3e5783019060408483031261016d57833567ffffffffffffffff8111610d3a57840194606086840312610d3a57604051946060860186811067ffffffffffffffff821117610d2657604052863567ffffffffffffffff8111610d0657870184601f82011215610d06578035906102d3826110cd565b916102e16040519384611073565b80835260208084019160051b83010191878311610d2257602001905b828210610d0a575050508652602087013567ffffffffffffffff8111610d065787019380601f86011215610d06578435610336816110cd565b956103446040519788611073565b81875260208088019260051b820101928311610d0257602001905b828210610cea5750505061038d60206001600160a01b03928189019687526040808a019a01358a5201610fee565b16908551519660018801809811610cc2576103c06103aa896110cd565b986103b86040519a8b611073565b808a526110cd565b602089019190601f19013683375190885115610cd657527f00000000000000000000000000000000000000000000000000000000000000009483955b87518051881015610b3557610419886001600160a01b03926110e5565b5116600160ff61042a8a8a516110e5565b511614908115610a9157604051630dfe168160e01b8152602081600481855afa90811561065b578891610a73575b509160405163d21220a760e01b8152602081600481865afa9081156108b657916104e160208f95936001600160a01b038f96916104ad928f91610a56575b50995b16956001600160a01b0389168714976110e5565b518c604051808095819463095ea7b360e01b83528960048401602090939291936001600160a01b0360408201951681520152565b0391885af18015610a4b57918f918e93610a2f575b501561068257916105116001600160a01b03926040946110e5565b518515610666578b6401000276a4915b8551968460208901528688015285875261053c606088611073565b6105938651978896879586947f128acb080000000000000000000000000000000000000000000000000000000086523060048701528c6024870152604486015216606484015260a0608484015260a48301906110a9565b03925af190811561065b578890899261061e575b50821561061757505b7f800000000000000000000000000000000000000000000000000000000000000081146106035790600193929188035b6105ec8b86018e6110e5565b52156105fc57505b9601956103fc565b90506105f4565b602488634e487b7160e01b81526011600452fd5b90506105b0565b9150506040813d8211610653575b8161063960409383611073565b8101031261064f5760208151910151905f6105a7565b8780fd5b3d915061062c565b6040513d8a823e3d90fd5b8b73fffd8963efd1fc6a506488495d951d5263988d2591610521565b61068d9293506110e5565b516040517f0902f1ac000000000000000000000000000000000000000000000000000000008152606081600481865afa8015610a24578a918b916109c4575b506040517fc45a0155000000000000000000000000000000000000000000000000000000008152602081600481885afa9081156109b957906001600160a01b03918d9161099b575b50168b528a60205261ffff60408c20541691855f1461094957604051630dfe168160e01b8152602081600481895afa90811561091157858e8861079894602094839161091c575b50915b6001600160a01b0360405180978196829563a9059cbb60e01b845260048401602090939291936001600160a01b0360408201951681520152565b0393165af180156109115792612710926dffffffffffffffffffffffffffff95928f956108f5575b5088156108ee5780945b5088156108e65750945b029283921602019182156108d2576dffffffffffffffffffffffffffff1602049082156108cb5788905b83156108c557825b6040519260206108168186611073565b8c8552601f198101903690860137823b156108c1579161088293918c8094604051968795869485937f022c0d9f000000000000000000000000000000000000000000000000000000008552600485015260248401523060448401526080606484015260848301906110a9565b03925af180156108b6579089916108a1575b50509060019392916105e0565b816108ab91611073565b61064f57875f610894565b6040513d8b823e3d90fd5b8b80fd5b89610806565b81906107fe565b60248b634e487b7160e01b81526012600452fd5b9050946107d4565b81946107ca565b61090c9060203d8111610145576101398183611073565b6107c0565b6040513d8f823e3d90fd5b61093c9150853d8111610942575b6109348183611073565b81019061110d565b5f61075b565b503d61092a565b60405163d21220a760e01b8152602081600481895afa90811561091157858e8861079894602094839161097e575b509161075e565b6109959150853d8111610942576109348183611073565b5f610977565b6109b3915060203d8111610942576109348183611073565b5f610714565b6040513d8e823e3d90fd5b9150506060813d8211610a1c575b816109df60609383611073565b81010312610a18576109f081611144565b60406109fe60208401611144565b92015163ffffffff811603610a1457905f6106cc565b8a80fd5b8980fd5b3d91506109d2565b6040513d8c823e3d90fd5b610a469060203d8111610145576101398183611073565b6104f6565b6040513d8d823e3d90fd5b610a6d9150843d8111610942576109348183611073565b5f610496565b610a8b915060203d8111610942576109348183611073565b5f610458565b604051630dfe168160e01b8152602081600481855afa90811561065b578891610b17575b509160405163d21220a760e01b8152602081600481865afa9081156108b657916104e160208f95936001600160a01b038f96916104ad928f91610afa575b5099610499565b610b119150843d8111610942576109348183611073565b5f610af3565b610b2f915060203d8111610942576109348183611073565b5f610ab5565b83868487604435602435018060243511610cc257604051947f70a08231000000000000000000000000000000000000000000000000000000008652306004870152602086602481875afa958615610c7f578596610c8e575b50818610610c8a5760405163095ea7b360e01b81526001600160a01b039190911660048201526024810182905260208160448188885af18015610c7f57610c62575b508403938411610c4e5760405163a9059cbb60e01b81526001600160a01b0391909116600482015260248101939093526020908390604490829085905af1908115610c425750610c25575b602060405160018152f35b610c3d9060203d602011610145576101398183611073565b610c1a565b604051903d90823e3d90fd5b602483634e487b7160e01b81526011600452fd5b610c7a9060203d602011610145576101398183611073565b610bcf565b6040513d87823e3d90fd5b8480fd5b9095506020813d602011610cba575b81610caa60209383611073565b81010312610c8a57519486610b8d565b3d9150610c9d565b602484634e487b7160e01b81526011600452fd5b602485634e487b7160e01b81526032600452fd5b60208091610cf784611065565b81520191019061035f565b8580fd5b8380fd5b60208091610d1784610fee565b8152019101906102fd565b8680fd5b602484634e487b7160e01b81526041600452fd5b5080fd5b60646040517f08c379a000000000000000000000000000000000000000000000000000000000815260206004820152601b60248201527f43616c6c6572206d757374206265206c656e64696e6720706f6f6c00000000006044820152fd5b5034610f3b576020366003190112610f3b5760043567ffffffffffffffff8111610f3b578060040160606003198336030112610f3b5760405180926040602083015260c0820192610ded8180611030565b6060858101529485905260e08401945f5b818110610f6757505050610e186020916024840190611030565b848603605f1901608086015280865294909101935f5b818110610f3f57505050906044610e5c920135928360a083015233604083015203601f198101845283611073565b6001600160a01b037f00000000000000000000000000000000000000000000000000000000000000001691823b15610f3b57610f0c925f92836040518096819582947f42b0b77c0000000000000000000000000000000000000000000000000000000084523060048501526001600160a01b037f0000000000000000000000000000000000000000000000000000000000000000166024850152604484015260a0606484015260a48301906110a9565b82608483015203925af18015610f3057610f24575080f35b61001a91505f90611073565b6040513d5f823e3d90fd5b5f80fd5b91946001919394506020809160ff610f5689611065565b168152019501910191859392610e2e565b919560019193949550602080916001600160a01b03610f858a610fee565b16815201960191019186949392610dfe565b34610f3b575f366003190112610f3b576020906001600160a01b037f0000000000000000000000000000000000000000000000000000000000000000168152f35b606435906001600160a01b0382168203610f3b57565b35906001600160a01b0382168203610f3b57565b9181601f84011215610f3b5782359167ffffffffffffffff8311610f3b5760208381860195010111610f3b57565b9035601e1982360301811215610f3b57016020813591019167ffffffffffffffff8211610f3b578160051b36038313610f3b57565b359060ff82168203610f3b57565b90601f8019910116810190811067ffffffffffffffff82111761109557604052565b634e487b7160e01b5f52604160045260245ffd5b805180835260209291819084018484015e5f828201840152601f01601f1916010190565b67ffffffffffffffff81116110955760051b60200190565b80518210156110f95760209160051b010190565b634e487b7160e01b5f52603260045260245ffd5b90816020910312610f3b57516001600160a01b0381168103610f3b5790565b90816020910312610f3b57518015158103610f3b5790565b51906dffffffffffffffffffffffffffff82168203610f3b5756fea26469706673582212200b446d85933a81db4742c510c746b72c60f9b177e96a6c7f66957c001e7f0a8864736f6c634300081c0033","linkReferences":{}},"methodIdentifiers":{"ADDRESSES_PROVIDER()":"0542975c","POOL()":"7535d246","executeArbitrage((address[],uint8[],uint256))":"11057089","executeOperation(address,uint256,uint256,address,bytes)":"1b11d0ff","owner()":"8da5cb5b","uniswapV3SwapCallback(int256,int256,bytes)":"fa461e33"},"id":27}