{"abi":[{"type":"receive","stateMutability":"payable"},{"type":"function","name":"quoteArbitrage","inputs":[{"name":"params","type":"tuple","internalType":"struct FlashQuoter.SwapParams","components":[{"name":"pools","type":"address[]","internalType":"address[]"},{"name":"poolVersions","type":"uint8[]","internalType":"uint8[]"},{"name":"amountIn","type":"uint256","internalType":"uint256"}]}],"outputs":[{"name":"","type":"uint256[]","internalType":"uint256[]"}],"stateMutability":"nonpayable"},{"type":"function","name":"uniswapV3SwapCallback","inputs":[{"name":"amount0Delta","type":"int256","internalType":"int256"},{"name":"amount1Delta","type":"int256","internalType":"int256"},{"name":"data","type":"bytes","internalType":"bytes"}],"outputs":[],"stateMutability":"nonpayable"}],"bytecode":{"object":"0x6080604052348015600e575f5ffd5b50610f288061001c5f395ff3fe60806040526004361061002b575f3560e01c8063d67c841314610036578063fa461e331461006b575f5ffd5b3661003257005b5f5ffd5b348015610041575f5ffd5b50610055610050366004610af3565b61008c565b6040516100629190610b31565b60405180910390f35b348015610076575f5ffd5b5061008a610085366004610b73565b6104fd565b005b604080516323b872dd60e01b81523360048201523060248201529082013560448201526060906006602160991b01906323b872dd906064016020604051808303815f875af11580156100e0573d5f5f3e3d5ffd5b505050506040513d601f19601f820116820180604052508101906101049190610bef565b505f6101108380610c0e565b61011c91506001610c6f565b67ffffffffffffffff81111561013457610134610c88565b60405190808252806020026020018201604052801561015d578160200160208202803683370190505b5090508260400135815f8151811061017757610177610c9c565b60209081029190910101526006602160991b015f5b6101968580610c0e565b90508110156104f4575f6101aa8680610c0e565b838181106101ba576101ba610c9c565b90506020020160208101906101cf9190610cc7565b90505f6101df6020880188610c0e565b848181106101ef576101ef610c9c565b90506020020160208101906102049190610ce2565b60ff1660011490505f5f82156102e2575f849050806001600160a01b0316630dfe16816040518163ffffffff1660e01b8152600401602060405180830381865afa158015610254573d5f5f3e3d5ffd5b505050506040513d601f19601f820116820180604052508101906102789190610d02565b9250806001600160a01b031663d21220a76040518163ffffffff1660e01b8152600401602060405180830381865afa1580156102b6573d5f5f3e3d5ffd5b505050506040513d601f19601f820116820180604052508101906102da9190610d02565b9150506103ac565b5f849050806001600160a01b0316630dfe16816040518163ffffffff1660e01b8152600401602060405180830381865afa158015610322573d5f5f3e3d5ffd5b505050506040513d601f19601f820116820180604052508101906103469190610d02565b9250806001600160a01b031663d21220a76040518163ffffffff1660e01b8152600401602060405180830381865afa158015610384573d5f5f3e3d5ffd5b505050506040513d601f19601f820116820180604052508101906103a89190610d02565b9150505b5f826001600160a01b0316876001600160a01b0316149050866001600160a01b031663095ea7b3868a89815181106103e6576103e6610c9c565b60200260200101516040518363ffffffff1660e01b815260040161041f9291906001600160a01b03929092168252602082015260400190565b6020604051808303815f875af115801561043b573d5f5f3e3d5ffd5b505050506040513d601f19601f8201168201806040525081019061045f9190610bef565b508361048e576104898589888151811061047b5761047b610c9c565b60200260200101518361059d565b6104b3565b6104b3858988815181106104a4576104a4610c9c565b6020026020010151898461089e565b8887600101815181106104c8576104c8610c9c565b602002602001018181525050806104df57826104e1565b815b9650506001909401935061018c92505050565b50909392505050565b5f8061050b83850185610d1d565b915091505f5f871361051d578561051f565b865b60405163a9059cbb60e01b81526001600160a01b038581166004830152602482018390529192509083169063a9059cbb906044016020604051808303815f875af115801561056f573d5f5f3e3d5ffd5b505050506040513d601f19601f820116820180604052508101906105939190610bef565b5050505050505050565b5f5f8490505f5f826001600160a01b0316630902f1ac6040518163ffffffff1660e01b8152600401606060405180830381865afa1580156105e0573d5f5f3e3d5ffd5b505050506040513d601f19601f820116820180604052508101906106049190610d6f565b50915091505f610672846001600160a01b031663c45a01556040518163ffffffff1660e01b8152600401602060405180830381865afa158015610649573d5f5f3e3d5ffd5b505050506040513d601f19601f8201168201806040525081019061066d9190610d02565b6109ae565b90505f866106df57846001600160a01b031663d21220a76040518163ffffffff1660e01b8152600401602060405180830381865afa1580156106b6573d5f5f3e3d5ffd5b505050506040513d601f19601f820116820180604052508101906106da9190610d02565b61073f565b846001600160a01b0316630dfe16816040518163ffffffff1660e01b8152600401602060405180830381865afa15801561071b573d5f5f3e3d5ffd5b505050506040513d601f19601f8201168201806040525081019061073f9190610d02565b60405163a9059cbb60e01b81526001600160a01b038b81166004830152602482018b90529192509082169063a9059cbb906044016020604051808303815f875af115801561078f573d5f5f3e3d5ffd5b505050506040513d601f19601f820116820180604052508101906107b39190610bef565b505f876107c057836107c2565b845b6001600160701b031690505f886107d957856107db565b845b6001600160701b0316905061ffff84168a02612710830281018183028161080457610804610dbb565b049850505050846001600160a01b031663022c0d9f886108245787610826565b5f5b89610831575f610833565b885b604080515f815260208101918290526001600160e01b031960e086901b16909152610865929190309060248101610dfd565b5f604051808303815f87803b15801561087c575f5ffd5b505af115801561088e573d5f5f3e3d5ffd5b5050505050505050509392505050565b5f8481836108ca576108c5600173fffd8963efd1fc6a506488495d951d5263988d26610e33565b6108da565b6108da6401000276a36001610e52565b90505f5f836001600160a01b031663128acb0830888b878e8d6040516020016109199291906001600160a01b0392831681529116602082015260400190565b6040516020818303038152906040526040518663ffffffff1660e01b8152600401610948959493929190610e71565b60408051808303815f875af1158015610963573d5f5f3e3d5ffd5b505050506040513d601f19601f820116820180604052508101906109879190610eb6565b91509150856109965781610998565b805b6109a190610ed8565b9998505050505050505050565b5f6001600160a01b038216738909dc15e40173ff4699343b6eb8132c65e18ec6036109dc57506126f2919050565b6001600160a01b0382167371524b4f93c58fcbf659783284e38825f062285903610a0957506126f2919050565b6001600160a01b0382167302a84c1b3bbd7401a5f7fa98a384ebc70bb5749e03610a3657506126f7919050565b6001600160a01b0382167304c9f118d21e8b767d2e50c946f0cc9f6c36730003610a6357506126f2919050565b6001600160a01b03821673fda619b6d20975be80a10332cd39b9a4b0faa8bb03610a9057506126f7919050565b6001600160a01b03821673591f122d1df761e616c13d265006fcbf4c6d655103610abd57506126f7919050565b6001600160a01b038216733e84d913803b02a4a7f027165e8ca42c14c0fde703610aea5750612700919050565b506126f2919050565b5f60208284031215610b03575f5ffd5b813567ffffffffffffffff811115610b19575f5ffd5b820160608185031215610b2a575f5ffd5b9392505050565b602080825282518282018190525f918401906040840190835b81811015610b68578351835260209384019390920191600101610b4a565b509095945050505050565b5f5f5f5f60608587031215610b86575f5ffd5b8435935060208501359250604085013567ffffffffffffffff811115610baa575f5ffd5b8501601f81018713610bba575f5ffd5b803567ffffffffffffffff811115610bd0575f5ffd5b876020828401011115610be1575f5ffd5b949793965060200194505050565b5f60208284031215610bff575f5ffd5b81518015158114610b2a575f5ffd5b5f5f8335601e19843603018112610c23575f5ffd5b83018035915067ffffffffffffffff821115610c3d575f5ffd5b6020019150600581901b3603821315610c54575f5ffd5b9250929050565b634e487b7160e01b5f52601160045260245ffd5b80820180821115610c8257610c82610c5b565b92915050565b634e487b7160e01b5f52604160045260245ffd5b634e487b7160e01b5f52603260045260245ffd5b6001600160a01b0381168114610cc4575f5ffd5b50565b5f60208284031215610cd7575f5ffd5b8135610b2a81610cb0565b5f60208284031215610cf2575f5ffd5b813560ff81168114610b2a575f5ffd5b5f60208284031215610d12575f5ffd5b8151610b2a81610cb0565b5f5f60408385031215610d2e575f5ffd5b8235610d3981610cb0565b91506020830135610d4981610cb0565b809150509250929050565b80516001600160701b0381168114610d6a575f5ffd5b919050565b5f5f5f60608486031215610d81575f5ffd5b610d8a84610d54565b9250610d9860208501610d54565b9150604084015163ffffffff81168114610db0575f5ffd5b809150509250925092565b634e487b7160e01b5f52601260045260245ffd5b5f81518084528060208401602086015e5f602082860101526020601f19601f83011685010191505092915050565b84815283602082015260018060a01b0383166040820152608060608201525f610e296080830184610dcf565b9695505050505050565b6001600160a01b038281168282160390811115610c8257610c82610c5b565b6001600160a01b038181168382160190811115610c8257610c82610c5b565b6001600160a01b0386811682528515156020830152604082018590528316606082015260a0608082018190525f90610eab90830184610dcf565b979650505050505050565b5f5f60408385031215610ec7575f5ffd5b505080516020909101519092909150565b5f600160ff1b8201610eec57610eec610c5b565b505f039056fea264697066735822122004b295ffe6a296d75a652ea828dd608ac742e349f9292e4e2b24595d166a7fd464736f6c634300081c0033","linkReferences":{}},"methodIdentifiers":{"quoteArbitrage((address[],uint8[],uint256))":"d67c8413","uniswapV3SwapCallback(int256,int256,bytes)":"fa461e33"},"id":26}